{
  "_format": "hh-sol-artifact-1",
  "contractName": "TastyTest",
  "sourceName": "contracts/Tastytest.sol",
  "abi": [
    {
      "inputs": [
        {
          "internalType": "string",
          "name": "uri",
          "type": "string"
        },
        {
          "internalType": "bytes32",
          "name": "merkleroot",
          "type": "bytes32"
        },
        {
          "internalType": "address",
          "name": "_proxyRegistryAddress",
          "type": "address"
        }
      ],
      "stateMutability": "nonpayable",
      "type": "constructor"
    },
    {
      "anonymous": false,
      "inputs": [
        {
          "indexed": true,
          "internalType": "address",
          "name": "owner",
          "type": "address"
        },
        {
          "indexed": true,
          "internalType": "address",
          "name": "approved",
          "type": "address"
        },
        {
          "indexed": true,
          "internalType": "uint256",
          "name": "tokenId",
          "type": "uint256"
        }
      ],
      "name": "Approval",
      "type": "event"
    },
    {
      "anonymous": false,
      "inputs": [
        {
          "indexed": true,
          "internalType": "address",
          "name": "owner",
          "type": "address"
        },
        {
          "indexed": true,
          "internalType": "address",
          "name": "operator",
          "type": "address"
        },
        {
          "indexed": false,
          "internalType": "bool",
          "name": "approved",
          "type": "bool"
        }
      ],
      "name": "ApprovalForAll",
      "type": "event"
    },
    {
      "anonymous": false,
      "inputs": [
        {
          "indexed": true,
          "internalType": "address",
          "name": "previousOwner",
          "type": "address"
        },
        {
          "indexed": true,
          "internalType": "address",
          "name": "newOwner",
          "type": "address"
        }
      ],
      "name": "OwnershipTransferred",
      "type": "event"
    },
    {
      "anonymous": false,
      "inputs": [
        {
          "indexed": true,
          "internalType": "address",
          "name": "from",
          "type": "address"
        },
        {
          "indexed": true,
          "internalType": "address",
          "name": "to",
          "type": "address"
        },
        {
          "indexed": true,
          "internalType": "uint256",
          "name": "tokenId",
          "type": "uint256"
        }
      ],
      "name": "Transfer",
      "type": "event"
    },
    {
      "inputs": [
        {
          "internalType": "address",
          "name": "",
          "type": "address"
        }
      ],
      "name": "_ownerClaimed",
      "outputs": [
        {
          "internalType": "uint256",
          "name": "",
          "type": "uint256"
        }
      ],
      "stateMutability": "view",
      "type": "function"
    },
    {
      "inputs": [
        {
          "internalType": "address",
          "name": "",
          "type": "address"
        }
      ],
      "name": "_presaleClaimed",
      "outputs": [
        {
          "internalType": "uint256",
          "name": "",
          "type": "uint256"
        }
      ],
      "stateMutability": "view",
      "type": "function"
    },
    {
      "inputs": [
        {
          "internalType": "address",
          "name": "to",
          "type": "address"
        },
        {
          "internalType": "uint256",
          "name": "tokenId",
          "type": "uint256"
        }
      ],
      "name": "approve",
      "outputs": [],
      "stateMutability": "nonpayable",
      "type": "function"
    },
    {
      "inputs": [
        {
          "internalType": "address",
          "name": "owner",
          "type": "address"
        }
      ],
      "name": "balanceOf",
      "outputs": [
        {
          "internalType": "uint256",
          "name": "",
          "type": "uint256"
        }
      ],
      "stateMutability": "view",
      "type": "function"
    },
    {
      "inputs": [],
      "name": "baseExtension",
      "outputs": [
        {
          "internalType": "string",
          "name": "",
          "type": "string"
        }
      ],
      "stateMutability": "view",
      "type": "function"
    },
    {
      "inputs": [],
      "name": "baseURI",
      "outputs": [
        {
          "internalType": "string",
          "name": "",
          "type": "string"
        }
      ],
      "stateMutability": "view",
      "type": "function"
    },
    {
      "inputs": [
        {
          "internalType": "uint256",
          "name": "tokenId",
          "type": "uint256"
        }
      ],
      "name": "getApproved",
      "outputs": [
        {
          "internalType": "address",
          "name": "",
          "type": "address"
        }
      ],
      "stateMutability": "view",
      "type": "function"
    },
    {
      "inputs": [
        {
          "internalType": "address",
          "name": "owner",
          "type": "address"
        },
        {
          "internalType": "address",
          "name": "operator",
          "type": "address"
        }
      ],
      "name": "isApprovedForAll",
      "outputs": [
        {
          "internalType": "bool",
          "name": "",
          "type": "bool"
        }
      ],
      "stateMutability": "view",
      "type": "function"
    },
    {
      "inputs": [],
      "name": "maxSupply",
      "outputs": [
        {
          "internalType": "uint256",
          "name": "",
          "type": "uint256"
        }
      ],
      "stateMutability": "view",
      "type": "function"
    },
    {
      "inputs": [],
      "name": "name",
      "outputs": [
        {
          "internalType": "string",
          "name": "",
          "type": "string"
        }
      ],
      "stateMutability": "view",
      "type": "function"
    },
    {
      "inputs": [],
      "name": "notRevealedUri",
      "outputs": [
        {
          "internalType": "string",
          "name": "",
          "type": "string"
        }
      ],
      "stateMutability": "view",
      "type": "function"
    },
    {
      "inputs": [],
      "name": "owner",
      "outputs": [
        {
          "internalType": "address",
          "name": "",
          "type": "address"
        }
      ],
      "stateMutability": "view",
      "type": "function"
    },
    {
      "inputs": [
        {
          "internalType": "uint256",
          "name": "_amount",
          "type": "uint256"
        }
      ],
      "name": "ownerMinting",
      "outputs": [],
      "stateMutability": "nonpayable",
      "type": "function"
    },
    {
      "inputs": [
        {
          "internalType": "uint256",
          "name": "tokenId",
          "type": "uint256"
        }
      ],
      "name": "ownerOf",
      "outputs": [
        {
          "internalType": "address",
          "name": "",
          "type": "address"
        }
      ],
      "stateMutability": "view",
      "type": "function"
    },
    {
      "inputs": [],
      "name": "paused",
      "outputs": [
        {
          "internalType": "bool",
          "name": "",
          "type": "bool"
        }
      ],
      "stateMutability": "view",
      "type": "function"
    },
    {
      "inputs": [],
      "name": "presaleM",
      "outputs": [
        {
          "internalType": "bool",
          "name": "",
          "type": "bool"
        }
      ],
      "stateMutability": "view",
      "type": "function"
    },
    {
      "inputs": [
        {
          "internalType": "address",
          "name": "account",
          "type": "address"
        },
        {
          "internalType": "uint256",
          "name": "_amount",
          "type": "uint256"
        },
        {
          "internalType": "bytes32[]",
          "name": "_proof",
          "type": "bytes32[]"
        }
      ],
      "name": "presaleMint",
      "outputs": [],
      "stateMutability": "payable",
      "type": "function"
    },
    {
      "inputs": [],
      "name": "publicM",
      "outputs": [
        {
          "internalType": "bool",
          "name": "",
          "type": "bool"
        }
      ],
      "stateMutability": "view",
      "type": "function"
    },
    {
      "inputs": [
        {
          "internalType": "uint256",
          "name": "_amount",
          "type": "uint256"
        }
      ],
      "name": "publicSaleMint",
      "outputs": [],
      "stateMutability": "payable",
      "type": "function"
    },
    {
      "inputs": [],
      "name": "renounceOwnership",
      "outputs": [],
      "stateMutability": "nonpayable",
      "type": "function"
    },
    {
      "inputs": [],
      "name": "reveal",
      "outputs": [],
      "stateMutability": "nonpayable",
      "type": "function"
    },
    {
      "inputs": [],
      "name": "revealed",
      "outputs": [
        {
          "internalType": "bool",
          "name": "",
          "type": "bool"
        }
      ],
      "stateMutability": "view",
      "type": "function"
    },
    {
      "inputs": [],
      "name": "root",
      "outputs": [
        {
          "internalType": "bytes32",
          "name": "",
          "type": "bytes32"
        }
      ],
      "stateMutability": "view",
      "type": "function"
    },
    {
      "inputs": [
        {
          "internalType": "address",
          "name": "from",
          "type": "address"
        },
        {
          "internalType": "address",
          "name": "to",
          "type": "address"
        },
        {
          "internalType": "uint256",
          "name": "tokenId",
          "type": "uint256"
        }
      ],
      "name": "safeTransferFrom",
      "outputs": [],
      "stateMutability": "nonpayable",
      "type": "function"
    },
    {
      "inputs": [
        {
          "internalType": "address",
          "name": "from",
          "type": "address"
        },
        {
          "internalType": "address",
          "name": "to",
          "type": "address"
        },
        {
          "internalType": "uint256",
          "name": "tokenId",
          "type": "uint256"
        },
        {
          "internalType": "bytes",
          "name": "_data",
          "type": "bytes"
        }
      ],
      "name": "safeTransferFrom",
      "outputs": [],
      "stateMutability": "nonpayable",
      "type": "function"
    },
    {
      "inputs": [
        {
          "internalType": "address",
          "name": "operator",
          "type": "address"
        },
        {
          "internalType": "bool",
          "name": "approved",
          "type": "bool"
        }
      ],
      "name": "setApprovalForAll",
      "outputs": [],
      "stateMutability": "nonpayable",
      "type": "function"
    },
    {
      "inputs": [
        {
          "internalType": "string",
          "name": "_newBaseExtension",
          "type": "string"
        }
      ],
      "name": "setBaseExtension",
      "outputs": [],
      "stateMutability": "nonpayable",
      "type": "function"
    },
    {
      "inputs": [
        {
          "internalType": "string",
          "name": "_tokenBaseURI",
          "type": "string"
        }
      ],
      "name": "setBaseURI",
      "outputs": [],
      "stateMutability": "nonpayable",
      "type": "function"
    },
    {
      "inputs": [
        {
          "internalType": "bytes32",
          "name": "merkleroot",
          "type": "bytes32"
        }
      ],
      "name": "setMerkleRoot",
      "outputs": [],
      "stateMutability": "nonpayable",
      "type": "function"
    },
    {
      "inputs": [
        {
          "internalType": "string",
          "name": "_notRevealedURI",
          "type": "string"
        }
      ],
      "name": "setNotRevealedURI",
      "outputs": [],
      "stateMutability": "nonpayable",
      "type": "function"
    },
    {
      "inputs": [
        {
          "internalType": "bytes4",
          "name": "interfaceId",
          "type": "bytes4"
        }
      ],
      "name": "supportsInterface",
      "outputs": [
        {
          "internalType": "bool",
          "name": "",
          "type": "bool"
        }
      ],
      "stateMutability": "view",
      "type": "function"
    },
    {
      "inputs": [],
      "name": "symbol",
      "outputs": [
        {
          "internalType": "string",
          "name": "",
          "type": "string"
        }
      ],
      "stateMutability": "view",
      "type": "function"
    },
    {
      "inputs": [],
      "name": "togglePause",
      "outputs": [],
      "stateMutability": "nonpayable",
      "type": "function"
    },
    {
      "inputs": [],
      "name": "togglePresale",
      "outputs": [],
      "stateMutability": "nonpayable",
      "type": "function"
    },
    {
      "inputs": [],
      "name": "togglePublicSale",
      "outputs": [],
      "stateMutability": "nonpayable",
      "type": "function"
    },
    {
      "inputs": [
        {
          "internalType": "uint256",
          "name": "tokenId",
          "type": "uint256"
        }
      ],
      "name": "tokenURI",
      "outputs": [
        {
          "internalType": "string",
          "name": "",
          "type": "string"
        }
      ],
      "stateMutability": "view",
      "type": "function"
    },
    {
      "inputs": [],
      "name": "totalSupply",
      "outputs": [
        {
          "internalType": "uint256",
          "name": "",
          "type": "uint256"
        }
      ],
      "stateMutability": "view",
      "type": "function"
    },
    {
      "inputs": [
        {
          "internalType": "address",
          "name": "from",
          "type": "address"
        },
        {
          "internalType": "address",
          "name": "to",
          "type": "address"
        },
        {
          "internalType": "uint256",
          "name": "tokenId",
          "type": "uint256"
        }
      ],
      "name": "transferFrom",
      "outputs": [],
      "stateMutability": "nonpayable",
      "type": "function"
    },
    {
      "inputs": [
        {
          "internalType": "address",
          "name": "newOwner",
          "type": "address"
        }
      ],
      "name": "transferOwnership",
      "outputs": [],
      "stateMutability": "nonpayable",
      "type": "function"
    },
    {
      "inputs": [],
      "name": "withdraw",
      "outputs": [],
      "stateMutability": "nonpayable",
      "type": "function"
    }
  ],
  "bytecode": "0x6064600a5560e0604052603660808181529062002d0260a03980516200002e91600b916020909101906200026b565b5060405180608001604052806041815260200162002cc16041913980516200005f91600c916020909101906200026b565b5060408051808201909152600580825264173539b7b760d91b60209092019182526200008e91600d916200026b565b50600e805463ffffffff19166101011790556005600f556014601155661ff973cafa8000601355348015620000c257600080fd5b5060405162002d3838038062002d38833981016040819052620000e59162000344565b604080518082018252600981526815185cdd1e55195cdd60ba1b60208083019182528351808501909452600384526215151560ea1b90840152815191929162000131916000916200026b565b508051620001479060019060208401906200026b565b505050620001646200015e6200019d60201b60201c565b620001a1565b60016007556008829055600980546001600160a01b0319166001600160a01b0383161790556200019483620001f3565b5050506200047c565b3390565b600680546001600160a01b038381166001600160a01b0319831681179093556040519116919082907f8be0079c531659141344cd1fd0a4f28419497f9722a3daafe3b4186f6b6457e090600090a35050565b6006546001600160a01b03163314620002525760405162461bcd60e51b815260206004820181905260248201527f4f776e61626c653a2063616c6c6572206973206e6f7420746865206f776e6572604482015260640160405180910390fd5b80516200026790600b9060208401906200026b565b5050565b82805462000279906200043f565b90600052602060002090601f0160209004810192826200029d5760008555620002e8565b82601f10620002b857805160ff1916838001178555620002e8565b82800160010185558215620002e8579182015b82811115620002e8578251825591602001919060010190620002cb565b50620002f6929150620002fa565b5090565b5b80821115620002f65760008155600101620002fb565b634e487b7160e01b600052604160045260246000fd5b80516001600160a01b03811681146200033f57600080fd5b919050565b6000806000606084860312156200035a57600080fd5b83516001600160401b03808211156200037257600080fd5b818601915086601f8301126200038757600080fd5b8151818111156200039c576200039c62000311565b604051601f8201601f19908116603f01168101908382118183101715620003c757620003c762000311565b81604052828152602093508984848701011115620003e457600080fd5b600091505b82821015620004085784820184015181830185015290830190620003e9565b828211156200041a5760008484830101525b8097505050508086015193505050620004366040850162000327565b90509250925092565b600181811c908216806200045457607f821691505b602082108114156200047657634e487b7160e01b600052602260045260246000fd5b50919050565b612835806200048c6000396000f3fe60806040526004361061023b5760003560e01c80638da5cb5b1161012e578063c4ae3168116100ab578063e222c7f91161006f578063e222c7f91461065f578063e985e9c514610674578063ebf0c71714610694578063f2c4ce1e146106aa578063f2fde38b146106ca57600080fd5b8063c4ae3168146105df578063c6682862146105f4578063c87b56dd14610609578063d5abeb0114610629578063da3ef23f1461063f57600080fd5b8063a475b5dd116100f2578063a475b5dd1461054a578063af4c0f901461055f578063b3ab66b01461058c578063b88d4fde1461059f578063b8e81717146105bf57600080fd5b80638da5cb5b146104c3578063954dc3e3146104e157806395d89b41146104f4578063a22cb46514610509578063a45063c01461052957600080fd5b806342842e0e116101bc5780636c0360eb116101805780636c0360eb1461042c57806370a0823114610441578063715018a6146104615780637cb64759146104765780638cc4de191461049657600080fd5b806342842e0e1461039357806351830227146103b357806355f804b3146103d25780635c975abb146103f25780636352211e1461040c57600080fd5b80631798d58b116102035780631798d58b1461030657806318160ddd1461032657806323b872dd1461034957806334393743146103695780633ccfd60b1461037e57600080fd5b806301ffc9a71461024057806306fdde0314610275578063081812fc14610297578063081c8c44146102cf578063095ea7b3146102e4575b600080fd5b34801561024c57600080fd5b5061026061025b3660046120d4565b6106ea565b60405190151581526020015b60405180910390f35b34801561028157600080fd5b5061028a61073c565b60405161026c9190612149565b3480156102a357600080fd5b506102b76102b236600461215c565b6107ce565b6040516001600160a01b03909116815260200161026c565b3480156102db57600080fd5b5061028a610868565b3480156102f057600080fd5b506103046102ff36600461218a565b6108f6565b005b34801561031257600080fd5b50600e546102609062010000900460ff1681565b34801561033257600080fd5b5061033b610a0c565b60405190815260200161026c565b34801561035557600080fd5b506103046103643660046121b6565b610a1c565b34801561037557600080fd5b50610304610a4d565b34801561038a57600080fd5b50610304610a96565b34801561039f57600080fd5b506103046103ae3660046121b6565b610b34565b3480156103bf57600080fd5b50600e5461026090610100900460ff1681565b3480156103de57600080fd5b506103046103ed366004612283565b610b4f565b3480156103fe57600080fd5b50600e546102609060ff1681565b34801561041857600080fd5b506102b761042736600461215c565b610b90565b34801561043857600080fd5b5061028a610c07565b34801561044d57600080fd5b5061033b61045c3660046122cc565b610c14565b34801561046d57600080fd5b50610304610c9b565b34801561048257600080fd5b5061030461049136600461215c565b610cd1565b3480156104a257600080fd5b5061033b6104b13660046122cc565b60106020526000908152604090205481565b3480156104cf57600080fd5b506006546001600160a01b03166102b7565b6103046104ef3660046122e9565b610d00565b34801561050057600080fd5b5061028a610fc6565b34801561051557600080fd5b50610304610524366004612375565b610fd5565b34801561053557600080fd5b50600e54610260906301000000900460ff1681565b34801561055657600080fd5b50610304610fe0565b34801561056b57600080fd5b5061033b61057a3660046122cc565b60126020526000908152604090205481565b61030461059a36600461215c565b61101b565b3480156105ab57600080fd5b506103046105ba3660046123b3565b6111c1565b3480156105cb57600080fd5b506103046105da36600461215c565b6111f9565b3480156105eb57600080fd5b50610304611342565b34801561060057600080fd5b5061028a611380565b34801561061557600080fd5b5061028a61062436600461215c565b61138d565b34801561063557600080fd5b5061033b600a5481565b34801561064b57600080fd5b5061030461065a366004612283565b61150c565b34801561066b57600080fd5b50610304611549565b34801561068057600080fd5b5061026061068f366004612433565b611594565b3480156106a057600080fd5b5061033b60085481565b3480156106b657600080fd5b506103046106c5366004612283565b611664565b3480156106d657600080fd5b506103046106e53660046122cc565b6116a1565b60006001600160e01b031982166380ac58cd60e01b148061071b57506001600160e01b03198216635b5e139f60e01b145b8061073657506301ffc9a760e01b6001600160e01b03198316145b92915050565b60606000805461074b90612461565b80601f016020809104026020016040519081016040528092919081815260200182805461077790612461565b80156107c45780601f10610799576101008083540402835291602001916107c4565b820191906000526020600020905b8154815290600101906020018083116107a757829003601f168201915b5050505050905090565b6000818152600260205260408120546001600160a01b031661084c5760405162461bcd60e51b815260206004820152602c60248201527f4552433732313a20617070726f76656420717565727920666f72206e6f6e657860448201526b34b9ba32b73a103a37b5b2b760a11b60648201526084015b60405180910390fd5b506000908152600460205260409020546001600160a01b031690565b600c805461087590612461565b80601f01602080910402602001604051908101604052809291908181526020018280546108a190612461565b80156108ee5780601f106108c3576101008083540402835291602001916108ee565b820191906000526020600020905b8154815290600101906020018083116108d157829003601f168201915b505050505081565b600061090182610b90565b9050806001600160a01b0316836001600160a01b0316141561096f5760405162461bcd60e51b815260206004820152602160248201527f4552433732313a20617070726f76616c20746f2063757272656e74206f776e656044820152603960f91b6064820152608401610843565b336001600160a01b038216148061098b575061098b8133611594565b6109fd5760405162461bcd60e51b815260206004820152603860248201527f4552433732313a20617070726f76652063616c6c6572206973206e6f74206f7760448201527f6e6572206e6f7220617070726f76656420666f7220616c6c00000000000000006064820152608401610843565b610a078383611739565b505050565b6000610a1760145490565b905090565b610a2633826117a7565b610a425760405162461bcd60e51b81526004016108439061249c565b610a0783838361187d565b6006546001600160a01b03163314610a775760405162461bcd60e51b8152600401610843906124ed565b600e805462ff0000198116620100009182900460ff1615909102179055565b6006546001600160a01b03163314610ac05760405162461bcd60e51b8152600401610843906124ed565b6000610ad46006546001600160a01b031690565b6001600160a01b03164760405160006040518083038185875af1925050503d8060008114610b1e576040519150601f19603f3d011682016040523d82523d6000602084013e610b23565b606091505b5050905080610b3157600080fd5b50565b610a07838383604051806020016040528060008152506111c1565b6006546001600160a01b03163314610b795760405162461bcd60e51b8152600401610843906124ed565b8051610b8c90600b906020840190612025565b5050565b6000818152600260205260408120546001600160a01b0316806107365760405162461bcd60e51b815260206004820152602960248201527f4552433732313a206f776e657220717565727920666f72206e6f6e657869737460448201526832b73a103a37b5b2b760b91b6064820152608401610843565b600b805461087590612461565b60006001600160a01b038216610c7f5760405162461bcd60e51b815260206004820152602a60248201527f4552433732313a2062616c616e636520717565727920666f7220746865207a65604482015269726f206164647265737360b01b6064820152608401610843565b506001600160a01b031660009081526003602052604090205490565b6006546001600160a01b03163314610cc55760405162461bcd60e51b8152600401610843906124ed565b610ccf6000611a19565b565b6006546001600160a01b03163314610cfb5760405162461bcd60e51b8152600401610843906124ed565b600855565b8181610d77828280806020026020016040519081016040528093929190818152602001838360200280828437600092019190915250506008546040516bffffffffffffffffffffffff193360601b166020820152909250603401905060405160208183030381529060405280519060200120611a6b565b1515600114610d985760405162461bcd60e51b815260040161084390612522565b333214610db75760405162461bcd60e51b815260040161084390612522565b336001600160a01b03871614610df45760405162461bcd60e51b81526020600482015260026024820152614e4160f01b6044820152606401610843565b600e5462010000900460ff16610e3d5760405162461bcd60e51b815260206004820152600e60248201526d283932b9b0b6329034b99027a32360911b6044820152606401610843565b600e5460ff1615610e855760405162461bcd60e51b815260206004820152601260248201527110dbdb9d1c9858dd081a5cc81c185d5cd95960721b6044820152606401610843565b600f54851115610ea75760405162461bcd60e51b815260040161084390612545565b600f5433600090815260106020526040902054610ec5908790612588565b1115610ee35760405162461bcd60e51b815260040161084390612545565b6000610eee60145490565b600a54909150610efe8783612588565b1115610f1c5760405162461bcd60e51b8152600401610843906125a0565b3486601354610f2b91906125cd565b1115610f725760405162461bcd60e51b8152602060048201526016602482015275139bdd08195b9bdd59da08195d1a195c9cc81cd95b9d60521b6044820152606401610843565b3360009081526010602052604081208054889290610f91908490612588565b90915550600090505b86811015610fbc57610faa611a81565b80610fb4816125ec565b915050610f9a565b5050505050505050565b60606001805461074b90612461565b610b8c338383611b06565b6006546001600160a01b0316331461100a5760405162461bcd60e51b8152600401610843906124ed565b600e805461ff001916610100179055565b33321461103a5760405162461bcd60e51b815260040161084390612522565b600e546301000000900460ff166110875760405162461bcd60e51b8152602060048201526011602482015270283ab13634b1a9b0b6329034b99027a32360791b6044820152606401610843565b600e5460ff16156110cf5760405162461bcd60e51b815260206004820152601260248201527110dbdb9d1c9858dd081a5cc81c185d5cd95960721b6044820152606401610843565b6000811161110d5760405162461bcd60e51b815260206004820152600b60248201526a1e995c9bc8185b5bdd5b9d60aa1b6044820152606401610843565b600061111860145490565b600a549091506111288383612588565b11156111465760405162461bcd60e51b8152600401610843906125a0565b348260135461115591906125cd565b111561119c5760405162461bcd60e51b8152602060048201526016602482015275139bdd08195b9bdd59da08195d1a195c9cc81cd95b9d60521b6044820152606401610843565b60005b82811015610a07576111af611a81565b806111b9816125ec565b91505061119f565b6111cb33836117a7565b6111e75760405162461bcd60e51b81526004016108439061249c565b6111f384848484611bd5565b50505050565b6006546001600160a01b031633146112235760405162461bcd60e51b8152600401610843906124ed565b6011548111156112455760405162461bcd60e51b815260040161084390612545565b60115433600090815260126020526040902054611263908390612588565b11156112815760405162461bcd60e51b815260040161084390612545565b600081116112bf5760405162461bcd60e51b815260206004820152600b60248201526a1e995c9bc8185b5bdd5b9d60aa1b6044820152606401610843565b60006112ca60145490565b600a549091506112da8383612588565b11156112f85760405162461bcd60e51b8152600401610843906125a0565b3360009081526012602052604081208054849290611317908490612588565b90915550600090505b82811015610a0757611330611a81565b8061133a816125ec565b915050611320565b6006546001600160a01b0316331461136c5760405162461bcd60e51b8152600401610843906124ed565b600e805460ff19811660ff90911615179055565b600d805461087590612461565b6000818152600260205260409020546060906001600160a01b031661140c5760405162461bcd60e51b815260206004820152602f60248201527f4552433732314d657461646174613a2055524920717565727920666f72206e6f60448201526e3732bc34b9ba32b73a103a37b5b2b760891b6064820152608401610843565b600e54610100900460ff166114ad57600c805461142890612461565b80601f016020809104026020016040519081016040528092919081815260200182805461145490612461565b80156114a15780601f10611476576101008083540402835291602001916114a1565b820191906000526020600020905b81548152906001019060200180831161148457829003601f168201915b50505050509050919050565b60006114b7611c08565b905060008151116114d75760405180602001604052806000815250611505565b806114e184611c17565b600d6040516020016114f593929190612607565b6040516020818303038152906040525b9392505050565b6006546001600160a01b031633146115365760405162461bcd60e51b8152600401610843906124ed565b8051610b8c90600d906020840190612025565b6006546001600160a01b031633146115735760405162461bcd60e51b8152600401610843906124ed565b600e805463ff00000019811663010000009182900460ff1615909102179055565b60095460405163c455279160e01b81526001600160a01b03848116600483015260009281169190841690829063c45527919060240160206040518083038186803b1580156115e157600080fd5b505afa1580156115f5573d6000803e3d6000fd5b505050506040513d601f19601f8201168201806040525081019061161991906126cb565b6001600160a01b03161415611632576001915050610736565b6001600160a01b0380851660009081526005602090815260408083209387168352929052205460ff165b949350505050565b6006546001600160a01b0316331461168e5760405162461bcd60e51b8152600401610843906124ed565b8051610b8c90600c906020840190612025565b6006546001600160a01b031633146116cb5760405162461bcd60e51b8152600401610843906124ed565b6001600160a01b0381166117305760405162461bcd60e51b815260206004820152602660248201527f4f776e61626c653a206e6577206f776e657220697320746865207a65726f206160448201526564647265737360d01b6064820152608401610843565b610b3181611a19565b600081815260046020526040902080546001600160a01b0319166001600160a01b038416908117909155819061176e82610b90565b6001600160a01b03167f8c5be1e5ebec7d5bd14f71427d1e84f3dd0314c0f7b2291e5b200ac8c7c3b92560405160405180910390a45050565b6000818152600260205260408120546001600160a01b03166118205760405162461bcd60e51b815260206004820152602c60248201527f4552433732313a206f70657261746f7220717565727920666f72206e6f6e657860448201526b34b9ba32b73a103a37b5b2b760a11b6064820152608401610843565b600061182b83610b90565b9050806001600160a01b0316846001600160a01b0316148061185257506118528185611594565b8061165c5750836001600160a01b031661186b846107ce565b6001600160a01b031614949350505050565b826001600160a01b031661189082610b90565b6001600160a01b0316146118f45760405162461bcd60e51b815260206004820152602560248201527f4552433732313a207472616e736665722066726f6d20696e636f72726563742060448201526437bbb732b960d91b6064820152608401610843565b6001600160a01b0382166119565760405162461bcd60e51b8152602060048201526024808201527f4552433732313a207472616e7366657220746f20746865207a65726f206164646044820152637265737360e01b6064820152608401610843565b611961600082611739565b6001600160a01b038316600090815260036020526040812080546001929061198a9084906126e8565b90915550506001600160a01b03821660009081526003602052604081208054600192906119b8908490612588565b909155505060008181526002602052604080822080546001600160a01b0319166001600160a01b0386811691821790925591518493918716917fddf252ad1be2c89b69c2b068fc378daa952ba7f163c4a11628f55a4df523b3ef91a4505050565b600680546001600160a01b038381166001600160a01b0319831681179093556040519116919082907f8be0079c531659141344cd1fd0a4f28419497f9722a3daafe3b4186f6b6457e090600090a35050565b600082611a788584611d15565b14949350505050565b60026007541415611ad45760405162461bcd60e51b815260206004820152601f60248201527f5265656e7472616e637947756172643a207265656e7472616e742063616c6c006044820152606401610843565b6002600755611ae7601480546001019055565b6000611af260145490565b9050611afe3382611d89565b506001600755565b816001600160a01b0316836001600160a01b03161415611b685760405162461bcd60e51b815260206004820152601960248201527f4552433732313a20617070726f766520746f2063616c6c6572000000000000006044820152606401610843565b6001600160a01b03838116600081815260056020908152604080832094871680845294825291829020805460ff191686151590811790915591519182527f17307eab39ab6107e8899845ad3d59bd9653f200f220920489ca2b5937696c31910160405180910390a3505050565b611be084848461187d565b611bec84848484611da3565b6111f35760405162461bcd60e51b8152600401610843906126ff565b6060600b805461074b90612461565b606081611c3b5750506040805180820190915260018152600360fc1b602082015290565b8160005b8115611c655780611c4f816125ec565b9150611c5e9050600a83612767565b9150611c3f565b60008167ffffffffffffffff811115611c8057611c806121f7565b6040519080825280601f01601f191660200182016040528015611caa576020820181803683370190505b5090505b841561165c57611cbf6001836126e8565b9150611ccc600a8661277b565b611cd7906030612588565b60f81b818381518110611cec57611cec61278f565b60200101906001600160f81b031916908160001a905350611d0e600a86612767565b9450611cae565b600081815b8451811015611d81576000858281518110611d3757611d3761278f565b60200260200101519050808311611d5d5760008381526020829052604090209250611d6e565b600081815260208490526040902092505b5080611d79816125ec565b915050611d1a565b509392505050565b610b8c828260405180602001604052806000815250611eb0565b60006001600160a01b0384163b15611ea557604051630a85bd0160e11b81526001600160a01b0385169063150b7a0290611de79033908990889088906004016127a5565b602060405180830381600087803b158015611e0157600080fd5b505af1925050508015611e31575060408051601f3d908101601f19168201909252611e2e918101906127e2565b60015b611e8b573d808015611e5f576040519150601f19603f3d011682016040523d82523d6000602084013e611e64565b606091505b508051611e835760405162461bcd60e51b8152600401610843906126ff565b805181602001fd5b6001600160e01b031916630a85bd0160e11b14905061165c565b506001949350505050565b611eba8383611ee3565b611ec76000848484611da3565b610a075760405162461bcd60e51b8152600401610843906126ff565b6001600160a01b038216611f395760405162461bcd60e51b815260206004820181905260248201527f4552433732313a206d696e7420746f20746865207a65726f20616464726573736044820152606401610843565b6000818152600260205260409020546001600160a01b031615611f9e5760405162461bcd60e51b815260206004820152601c60248201527f4552433732313a20746f6b656e20616c7265616479206d696e746564000000006044820152606401610843565b6001600160a01b0382166000908152600360205260408120805460019290611fc7908490612588565b909155505060008181526002602052604080822080546001600160a01b0319166001600160a01b03861690811790915590518392907fddf252ad1be2c89b69c2b068fc378daa952ba7f163c4a11628f55a4df523b3ef908290a45050565b82805461203190612461565b90600052602060002090601f0160209004810192826120535760008555612099565b82601f1061206c57805160ff1916838001178555612099565b82800160010185558215612099579182015b8281111561209957825182559160200191906001019061207e565b506120a59291506120a9565b5090565b5b808211156120a557600081556001016120aa565b6001600160e01b031981168114610b3157600080fd5b6000602082840312156120e657600080fd5b8135611505816120be565b60005b8381101561210c5781810151838201526020016120f4565b838111156111f35750506000910152565b600081518084526121358160208601602086016120f1565b601f01601f19169290920160200192915050565b602081526000611505602083018461211d565b60006020828403121561216e57600080fd5b5035919050565b6001600160a01b0381168114610b3157600080fd5b6000806040838503121561219d57600080fd5b82356121a881612175565b946020939093013593505050565b6000806000606084860312156121cb57600080fd5b83356121d681612175565b925060208401356121e681612175565b929592945050506040919091013590565b634e487b7160e01b600052604160045260246000fd5b600067ffffffffffffffff80841115612228576122286121f7565b604051601f8501601f19908116603f01168101908282118183101715612250576122506121f7565b8160405280935085815286868601111561226957600080fd5b858560208301376000602087830101525050509392505050565b60006020828403121561229557600080fd5b813567ffffffffffffffff8111156122ac57600080fd5b8201601f810184136122bd57600080fd5b61165c8482356020840161220d565b6000602082840312156122de57600080fd5b813561150581612175565b600080600080606085870312156122ff57600080fd5b843561230a81612175565b935060208501359250604085013567ffffffffffffffff8082111561232e57600080fd5b818701915087601f83011261234257600080fd5b81358181111561235157600080fd5b8860208260051b850101111561236657600080fd5b95989497505060200194505050565b6000806040838503121561238857600080fd5b823561239381612175565b9150602083013580151581146123a857600080fd5b809150509250929050565b600080600080608085870312156123c957600080fd5b84356123d481612175565b935060208501356123e481612175565b925060408501359150606085013567ffffffffffffffff81111561240757600080fd5b8501601f8101871361241857600080fd5b6124278782356020840161220d565b91505092959194509250565b6000806040838503121561244657600080fd5b823561245181612175565b915060208301356123a881612175565b600181811c9082168061247557607f821691505b6020821081141561249657634e487b7160e01b600052602260045260246000fd5b50919050565b60208082526031908201527f4552433732313a207472616e736665722063616c6c6572206973206e6f74206f6040820152701ddb995c881b9bdc88185c1c1c9bdd9959607a1b606082015260800190565b6020808252818101527f4f776e61626c653a2063616c6c6572206973206e6f7420746865206f776e6572604082015260600190565b60208082526009908201526827209037b934b3b4b760b91b604082015260600190565b602080825260139082015272135a5b9d081b1a5b5a5d08195e18d959591959606a1b604082015260600190565b634e487b7160e01b600052601160045260246000fd5b6000821982111561259b5761259b612572565b500190565b60208082526013908201527213585e081cdd5c1c1b1e48195e18d959591959606a1b604082015260600190565b60008160001904831182151516156125e7576125e7612572565b500290565b600060001982141561260057612600612572565b5060010190565b60008451602061261a8285838a016120f1565b85519184019161262d8184848a016120f1565b8554920191600090600181811c908083168061264a57607f831692505b85831081141561266857634e487b7160e01b85526022600452602485fd5b80801561267c576001811461268d576126ba565b60ff198516885283880195506126ba565b60008b81526020902060005b858110156126b25781548a820152908401908801612699565b505083880195505b50939b9a5050505050505050505050565b6000602082840312156126dd57600080fd5b815161150581612175565b6000828210156126fa576126fa612572565b500390565b60208082526032908201527f4552433732313a207472616e7366657220746f206e6f6e20455243373231526560408201527131b2b4bb32b91034b6b83632b6b2b73a32b960711b606082015260800190565b634e487b7160e01b600052601260045260246000fd5b60008261277657612776612751565b500490565b60008261278a5761278a612751565b500690565b634e487b7160e01b600052603260045260246000fd5b6001600160a01b03858116825284166020820152604081018390526080606082018190526000906127d89083018461211d565b9695505050505050565b6000602082840312156127f457600080fd5b8151611505816120be56fea2646970667358221220180a4307762902d9dbdfb06c49fd904a41802ad5e7ad7ca8256d09fc721afcd164736f6c63430008090033697066733a2f2f516d595575774c6f69526238776f58774a434373723167766272384532314b757852746d56426d6e4831745a7a372f68696464656e2e6a736f6e697066733a2f2f516d5537626a6d3547314269566456526a7a625359465a6678397633594e69485354484c7576545854534e4b476a2f",
  "linkReferences": {},
  "deployedLinkReferences": {}
}