{
  "_format": "hh-sol-artifact-1",
  "contractName": "TastyTest2",
  "sourceName": "contracts/test.sol",
  "abi": [
    {
      "inputs": [
        {
          "internalType": "string",
          "name": "uri",
          "type": "string"
        },
        {
          "internalType": "bytes32",
          "name": "merkleroot",
          "type": "bytes32"
        },
        {
          "internalType": "bytes32",
          "name": "merklerootGA",
          "type": "bytes32"
        },
        {
          "internalType": "address",
          "name": "_proxyRegistryAddress",
          "type": "address"
        }
      ],
      "stateMutability": "nonpayable",
      "type": "constructor"
    },
    {
      "anonymous": false,
      "inputs": [
        {
          "indexed": true,
          "internalType": "address",
          "name": "owner",
          "type": "address"
        },
        {
          "indexed": true,
          "internalType": "address",
          "name": "approved",
          "type": "address"
        },
        {
          "indexed": true,
          "internalType": "uint256",
          "name": "tokenId",
          "type": "uint256"
        }
      ],
      "name": "Approval",
      "type": "event"
    },
    {
      "anonymous": false,
      "inputs": [
        {
          "indexed": true,
          "internalType": "address",
          "name": "owner",
          "type": "address"
        },
        {
          "indexed": true,
          "internalType": "address",
          "name": "operator",
          "type": "address"
        },
        {
          "indexed": false,
          "internalType": "bool",
          "name": "approved",
          "type": "bool"
        }
      ],
      "name": "ApprovalForAll",
      "type": "event"
    },
    {
      "anonymous": false,
      "inputs": [
        {
          "indexed": true,
          "internalType": "address",
          "name": "previousOwner",
          "type": "address"
        },
        {
          "indexed": true,
          "internalType": "address",
          "name": "newOwner",
          "type": "address"
        }
      ],
      "name": "OwnershipTransferred",
      "type": "event"
    },
    {
      "anonymous": false,
      "inputs": [
        {
          "indexed": true,
          "internalType": "address",
          "name": "from",
          "type": "address"
        },
        {
          "indexed": true,
          "internalType": "address",
          "name": "to",
          "type": "address"
        },
        {
          "indexed": true,
          "internalType": "uint256",
          "name": "tokenId",
          "type": "uint256"
        }
      ],
      "name": "Transfer",
      "type": "event"
    },
    {
      "inputs": [
        {
          "internalType": "address",
          "name": "",
          "type": "address"
        }
      ],
      "name": "_giveawayClaimed",
      "outputs": [
        {
          "internalType": "uint256",
          "name": "",
          "type": "uint256"
        }
      ],
      "stateMutability": "view",
      "type": "function"
    },
    {
      "inputs": [
        {
          "internalType": "address",
          "name": "",
          "type": "address"
        }
      ],
      "name": "_ownerClaimed",
      "outputs": [
        {
          "internalType": "uint256",
          "name": "",
          "type": "uint256"
        }
      ],
      "stateMutability": "view",
      "type": "function"
    },
    {
      "inputs": [
        {
          "internalType": "address",
          "name": "",
          "type": "address"
        }
      ],
      "name": "_presaleClaimed",
      "outputs": [
        {
          "internalType": "uint256",
          "name": "",
          "type": "uint256"
        }
      ],
      "stateMutability": "view",
      "type": "function"
    },
    {
      "inputs": [
        {
          "internalType": "address",
          "name": "to",
          "type": "address"
        },
        {
          "internalType": "uint256",
          "name": "tokenId",
          "type": "uint256"
        }
      ],
      "name": "approve",
      "outputs": [],
      "stateMutability": "nonpayable",
      "type": "function"
    },
    {
      "inputs": [
        {
          "internalType": "address",
          "name": "owner",
          "type": "address"
        }
      ],
      "name": "balanceOf",
      "outputs": [
        {
          "internalType": "uint256",
          "name": "",
          "type": "uint256"
        }
      ],
      "stateMutability": "view",
      "type": "function"
    },
    {
      "inputs": [],
      "name": "baseExtension",
      "outputs": [
        {
          "internalType": "string",
          "name": "",
          "type": "string"
        }
      ],
      "stateMutability": "view",
      "type": "function"
    },
    {
      "inputs": [],
      "name": "baseURI",
      "outputs": [
        {
          "internalType": "string",
          "name": "",
          "type": "string"
        }
      ],
      "stateMutability": "view",
      "type": "function"
    },
    {
      "inputs": [
        {
          "internalType": "uint256",
          "name": "tokenId",
          "type": "uint256"
        }
      ],
      "name": "getApproved",
      "outputs": [
        {
          "internalType": "address",
          "name": "",
          "type": "address"
        }
      ],
      "stateMutability": "view",
      "type": "function"
    },
    {
      "inputs": [
        {
          "internalType": "address",
          "name": "account",
          "type": "address"
        },
        {
          "internalType": "uint256",
          "name": "_amount",
          "type": "uint256"
        },
        {
          "internalType": "bytes32[]",
          "name": "_proofGA",
          "type": "bytes32[]"
        }
      ],
      "name": "giveAwayMint",
      "outputs": [],
      "stateMutability": "payable",
      "type": "function"
    },
    {
      "inputs": [],
      "name": "giveawayM",
      "outputs": [
        {
          "internalType": "bool",
          "name": "",
          "type": "bool"
        }
      ],
      "stateMutability": "view",
      "type": "function"
    },
    {
      "inputs": [
        {
          "internalType": "address",
          "name": "owner",
          "type": "address"
        },
        {
          "internalType": "address",
          "name": "operator",
          "type": "address"
        }
      ],
      "name": "isApprovedForAll",
      "outputs": [
        {
          "internalType": "bool",
          "name": "",
          "type": "bool"
        }
      ],
      "stateMutability": "view",
      "type": "function"
    },
    {
      "inputs": [],
      "name": "maxSupply",
      "outputs": [
        {
          "internalType": "uint256",
          "name": "",
          "type": "uint256"
        }
      ],
      "stateMutability": "view",
      "type": "function"
    },
    {
      "inputs": [],
      "name": "name",
      "outputs": [
        {
          "internalType": "string",
          "name": "",
          "type": "string"
        }
      ],
      "stateMutability": "view",
      "type": "function"
    },
    {
      "inputs": [],
      "name": "notRevealedUri",
      "outputs": [
        {
          "internalType": "string",
          "name": "",
          "type": "string"
        }
      ],
      "stateMutability": "view",
      "type": "function"
    },
    {
      "inputs": [],
      "name": "owner",
      "outputs": [
        {
          "internalType": "address",
          "name": "",
          "type": "address"
        }
      ],
      "stateMutability": "view",
      "type": "function"
    },
    {
      "inputs": [
        {
          "internalType": "uint256",
          "name": "_amount",
          "type": "uint256"
        }
      ],
      "name": "ownerMinting",
      "outputs": [],
      "stateMutability": "nonpayable",
      "type": "function"
    },
    {
      "inputs": [
        {
          "internalType": "uint256",
          "name": "tokenId",
          "type": "uint256"
        }
      ],
      "name": "ownerOf",
      "outputs": [
        {
          "internalType": "address",
          "name": "",
          "type": "address"
        }
      ],
      "stateMutability": "view",
      "type": "function"
    },
    {
      "inputs": [],
      "name": "paused",
      "outputs": [
        {
          "internalType": "bool",
          "name": "",
          "type": "bool"
        }
      ],
      "stateMutability": "view",
      "type": "function"
    },
    {
      "inputs": [],
      "name": "presaleM",
      "outputs": [
        {
          "internalType": "bool",
          "name": "",
          "type": "bool"
        }
      ],
      "stateMutability": "view",
      "type": "function"
    },
    {
      "inputs": [
        {
          "internalType": "address",
          "name": "account",
          "type": "address"
        },
        {
          "internalType": "uint256",
          "name": "_amount",
          "type": "uint256"
        },
        {
          "internalType": "bytes32[]",
          "name": "_proof",
          "type": "bytes32[]"
        }
      ],
      "name": "presaleMint",
      "outputs": [],
      "stateMutability": "payable",
      "type": "function"
    },
    {
      "inputs": [],
      "name": "publicM",
      "outputs": [
        {
          "internalType": "bool",
          "name": "",
          "type": "bool"
        }
      ],
      "stateMutability": "view",
      "type": "function"
    },
    {
      "inputs": [
        {
          "internalType": "uint256",
          "name": "_amount",
          "type": "uint256"
        }
      ],
      "name": "publicSaleMint",
      "outputs": [],
      "stateMutability": "payable",
      "type": "function"
    },
    {
      "inputs": [],
      "name": "renounceOwnership",
      "outputs": [],
      "stateMutability": "nonpayable",
      "type": "function"
    },
    {
      "inputs": [],
      "name": "reveal",
      "outputs": [],
      "stateMutability": "nonpayable",
      "type": "function"
    },
    {
      "inputs": [],
      "name": "revealed",
      "outputs": [
        {
          "internalType": "bool",
          "name": "",
          "type": "bool"
        }
      ],
      "stateMutability": "view",
      "type": "function"
    },
    {
      "inputs": [],
      "name": "root",
      "outputs": [
        {
          "internalType": "bytes32",
          "name": "",
          "type": "bytes32"
        }
      ],
      "stateMutability": "view",
      "type": "function"
    },
    {
      "inputs": [],
      "name": "rootGA",
      "outputs": [
        {
          "internalType": "bytes32",
          "name": "",
          "type": "bytes32"
        }
      ],
      "stateMutability": "view",
      "type": "function"
    },
    {
      "inputs": [
        {
          "internalType": "address",
          "name": "from",
          "type": "address"
        },
        {
          "internalType": "address",
          "name": "to",
          "type": "address"
        },
        {
          "internalType": "uint256",
          "name": "tokenId",
          "type": "uint256"
        }
      ],
      "name": "safeTransferFrom",
      "outputs": [],
      "stateMutability": "nonpayable",
      "type": "function"
    },
    {
      "inputs": [
        {
          "internalType": "address",
          "name": "from",
          "type": "address"
        },
        {
          "internalType": "address",
          "name": "to",
          "type": "address"
        },
        {
          "internalType": "uint256",
          "name": "tokenId",
          "type": "uint256"
        },
        {
          "internalType": "bytes",
          "name": "_data",
          "type": "bytes"
        }
      ],
      "name": "safeTransferFrom",
      "outputs": [],
      "stateMutability": "nonpayable",
      "type": "function"
    },
    {
      "inputs": [
        {
          "internalType": "address",
          "name": "operator",
          "type": "address"
        },
        {
          "internalType": "bool",
          "name": "approved",
          "type": "bool"
        }
      ],
      "name": "setApprovalForAll",
      "outputs": [],
      "stateMutability": "nonpayable",
      "type": "function"
    },
    {
      "inputs": [
        {
          "internalType": "string",
          "name": "_newBaseExtension",
          "type": "string"
        }
      ],
      "name": "setBaseExtension",
      "outputs": [],
      "stateMutability": "nonpayable",
      "type": "function"
    },
    {
      "inputs": [
        {
          "internalType": "string",
          "name": "_tokenBaseURI",
          "type": "string"
        }
      ],
      "name": "setBaseURI",
      "outputs": [],
      "stateMutability": "nonpayable",
      "type": "function"
    },
    {
      "inputs": [
        {
          "internalType": "bytes32",
          "name": "merkleroot",
          "type": "bytes32"
        }
      ],
      "name": "setMerkleRoot",
      "outputs": [],
      "stateMutability": "nonpayable",
      "type": "function"
    },
    {
      "inputs": [
        {
          "internalType": "bytes32",
          "name": "merklerootGA",
          "type": "bytes32"
        }
      ],
      "name": "setMerkleRootGA",
      "outputs": [],
      "stateMutability": "nonpayable",
      "type": "function"
    },
    {
      "inputs": [
        {
          "internalType": "string",
          "name": "_notRevealedURI",
          "type": "string"
        }
      ],
      "name": "setNotRevealedURI",
      "outputs": [],
      "stateMutability": "nonpayable",
      "type": "function"
    },
    {
      "inputs": [
        {
          "internalType": "bytes4",
          "name": "interfaceId",
          "type": "bytes4"
        }
      ],
      "name": "supportsInterface",
      "outputs": [
        {
          "internalType": "bool",
          "name": "",
          "type": "bool"
        }
      ],
      "stateMutability": "view",
      "type": "function"
    },
    {
      "inputs": [],
      "name": "symbol",
      "outputs": [
        {
          "internalType": "string",
          "name": "",
          "type": "string"
        }
      ],
      "stateMutability": "view",
      "type": "function"
    },
    {
      "inputs": [],
      "name": "togglePause",
      "outputs": [],
      "stateMutability": "nonpayable",
      "type": "function"
    },
    {
      "inputs": [],
      "name": "togglePresale",
      "outputs": [],
      "stateMutability": "nonpayable",
      "type": "function"
    },
    {
      "inputs": [],
      "name": "togglePublicSale",
      "outputs": [],
      "stateMutability": "nonpayable",
      "type": "function"
    },
    {
      "inputs": [],
      "name": "togglegiveAway",
      "outputs": [],
      "stateMutability": "nonpayable",
      "type": "function"
    },
    {
      "inputs": [
        {
          "internalType": "uint256",
          "name": "tokenId",
          "type": "uint256"
        }
      ],
      "name": "tokenURI",
      "outputs": [
        {
          "internalType": "string",
          "name": "",
          "type": "string"
        }
      ],
      "stateMutability": "view",
      "type": "function"
    },
    {
      "inputs": [],
      "name": "totalSupply",
      "outputs": [
        {
          "internalType": "uint256",
          "name": "",
          "type": "uint256"
        }
      ],
      "stateMutability": "view",
      "type": "function"
    },
    {
      "inputs": [
        {
          "internalType": "address",
          "name": "from",
          "type": "address"
        },
        {
          "internalType": "address",
          "name": "to",
          "type": "address"
        },
        {
          "internalType": "uint256",
          "name": "tokenId",
          "type": "uint256"
        }
      ],
      "name": "transferFrom",
      "outputs": [],
      "stateMutability": "nonpayable",
      "type": "function"
    },
    {
      "inputs": [
        {
          "internalType": "address",
          "name": "newOwner",
          "type": "address"
        }
      ],
      "name": "transferOwnership",
      "outputs": [],
      "stateMutability": "nonpayable",
      "type": "function"
    },
    {
      "inputs": [],
      "name": "withdraw",
      "outputs": [],
      "stateMutability": "nonpayable",
      "type": "function"
    }
  ],
  "bytecode": "0x6064600b5560e060405260366080818152906200305360a03980516200002e91600c9160209091019062000278565b50604051806080016040528060418152602001620030896041913980516200005f91600d9160209091019062000278565b5060408051808201909152600580825264173539b7b760d91b60209092019182526200008e91600e9162000278565b50600f805464ffffffffff191661010117905560056010556014601281905560019055661ff973cafa8000601655348015620000c957600080fd5b50604051620030ca380380620030ca833981016040819052620000ec9162000351565b604080518082018252600981526815185cdd1e55195cdd60ba1b60208083019182528351808501909452600384526215151560ea1b908401528151919291620001389160009162000278565b5080516200014e90600190602084019062000278565b5050506200016b62000165620001aa60201b60201c565b620001ae565b600160075560088390556009829055600a80546001600160a01b0319166001600160a01b038316179055620001a08462000200565b5050505062000493565b3390565b600680546001600160a01b038381166001600160a01b0319831681179093556040519116919082907f8be0079c531659141344cd1fd0a4f28419497f9722a3daafe3b4186f6b6457e090600090a35050565b6006546001600160a01b031633146200025f5760405162461bcd60e51b815260206004820181905260248201527f4f776e61626c653a2063616c6c6572206973206e6f7420746865206f776e6572604482015260640160405180910390fd5b80516200027490600c90602084019062000278565b5050565b828054620002869062000456565b90600052602060002090601f016020900481019282620002aa5760008555620002f5565b82601f10620002c557805160ff1916838001178555620002f5565b82800160010185558215620002f5579182015b82811115620002f5578251825591602001919060010190620002d8565b506200030392915062000307565b5090565b5b8082111562000303576000815560010162000308565b634e487b7160e01b600052604160045260246000fd5b80516001600160a01b03811681146200034c57600080fd5b919050565b600080600080608085870312156200036857600080fd5b84516001600160401b03808211156200038057600080fd5b818701915087601f8301126200039557600080fd5b815181811115620003aa57620003aa6200031e565b604051601f8201601f19908116603f01168101908382118183101715620003d557620003d56200031e565b81604052828152602093508a84848701011115620003f257600080fd5b600091505b82821015620004165784820184015181830185015290830190620003f7565b82821115620004285760008484830101525b8098505050508087015194505050604085015191506200044b6060860162000334565b905092959194509250565b600181811c908216806200046b57607f821691505b602082108114156200048d57634e487b7160e01b600052602260045260246000fd5b50919050565b612bb080620004a36000396000f3fe60806040526004361061027d5760003560e01c8063954dc3e31161014f578063c6682862116100c1578063da9b587f1161007a578063da9b587f1461072e578063e222c7f91461074e578063e985e9c514610763578063ebf0c71714610783578063f2c4ce1e14610799578063f2fde38b146107b957600080fd5b8063c668286214610681578063c692ebd514610696578063c87b56dd146106ab578063d5abeb01146106cb578063da375172146106e1578063da3ef23f1461070e57600080fd5b8063af4c0f9011610113578063af4c0f90146105d9578063b3ab66b014610606578063b88d4fde14610619578063b8e8171714610639578063c39d1ce814610659578063c4ae31681461066c57600080fd5b8063954dc3e31461055b57806395d89b411461056e578063a22cb46514610583578063a45063c0146105a3578063a475b5dd146105c457600080fd5b806351830227116101f3578063715018a6116101ac578063715018a6146104a35780637371dc38146104b85780637cb64759146104da5780638bea763c146104fa5780638cc4de19146105105780638da5cb5b1461053d57600080fd5b806351830227146103f557806355f804b3146104145780635c975abb146104345780636352211e1461044e5780636c0360eb1461046e57806370a082311461048357600080fd5b80631798d58b116102455780631798d58b1461034857806318160ddd1461036857806323b872dd1461038b57806334393743146103ab5780633ccfd60b146103c057806342842e0e146103d557600080fd5b806301ffc9a71461028257806306fdde03146102b7578063081812fc146102d9578063081c8c4414610311578063095ea7b314610326575b600080fd5b34801561028e57600080fd5b506102a261029d366004612423565b6107d9565b60405190151581526020015b60405180910390f35b3480156102c357600080fd5b506102cc61082b565b6040516102ae9190612498565b3480156102e557600080fd5b506102f96102f43660046124ab565b6108bd565b6040516001600160a01b0390911681526020016102ae565b34801561031d57600080fd5b506102cc610957565b34801561033257600080fd5b506103466103413660046124d9565b6109e5565b005b34801561035457600080fd5b50600f546102a29062010000900460ff1681565b34801561037457600080fd5b5061037d610afb565b6040519081526020016102ae565b34801561039757600080fd5b506103466103a6366004612505565b610b0b565b3480156103b757600080fd5b50610346610b3c565b3480156103cc57600080fd5b50610346610b85565b3480156103e157600080fd5b506103466103f0366004612505565b610c23565b34801561040157600080fd5b50600f546102a290610100900460ff1681565b34801561042057600080fd5b5061034661042f3660046125d2565b610c3e565b34801561044057600080fd5b50600f546102a29060ff1681565b34801561045a57600080fd5b506102f96104693660046124ab565b610c7f565b34801561047a57600080fd5b506102cc610cf6565b34801561048f57600080fd5b5061037d61049e36600461261b565b610d03565b3480156104af57600080fd5b50610346610d8a565b3480156104c457600080fd5b50600f546102a290640100000000900460ff1681565b3480156104e657600080fd5b506103466104f53660046124ab565b610dc0565b34801561050657600080fd5b5061037d60095481565b34801561051c57600080fd5b5061037d61052b36600461261b565b60116020526000908152604090205481565b34801561054957600080fd5b506006546001600160a01b03166102f9565b610346610569366004612638565b610def565b34801561057a57600080fd5b506102cc611091565b34801561058f57600080fd5b5061034661059e3660046126c4565b6110a0565b3480156105af57600080fd5b50600f546102a2906301000000900460ff1681565b3480156105d057600080fd5b506103466110ab565b3480156105e557600080fd5b5061037d6105f436600461261b565b60136020526000908152604090205481565b6103466106143660046124ab565b6110e6565b34801561062557600080fd5b50610346610634366004612702565b611267565b34801561064557600080fd5b506103466106543660046124ab565b61129f565b610346610667366004612638565b6113e8565b34801561067857600080fd5b50610346611615565b34801561068d57600080fd5b506102cc611653565b3480156106a257600080fd5b50610346611660565b3480156106b757600080fd5b506102cc6106c63660046124ab565b6116ad565b3480156106d757600080fd5b5061037d600b5481565b3480156106ed57600080fd5b5061037d6106fc36600461261b565b60156020526000908152604090205481565b34801561071a57600080fd5b506103466107293660046125d2565b61182c565b34801561073a57600080fd5b506103466107493660046124ab565b611869565b34801561075a57600080fd5b50610346611898565b34801561076f57600080fd5b506102a261077e366004612782565b6118e3565b34801561078f57600080fd5b5061037d60085481565b3480156107a557600080fd5b506103466107b43660046125d2565b6119b3565b3480156107c557600080fd5b506103466107d436600461261b565b6119f0565b60006001600160e01b031982166380ac58cd60e01b148061080a57506001600160e01b03198216635b5e139f60e01b145b8061082557506301ffc9a760e01b6001600160e01b03198316145b92915050565b60606000805461083a906127b0565b80601f0160208091040260200160405190810160405280929190818152602001828054610866906127b0565b80156108b35780601f10610888576101008083540402835291602001916108b3565b820191906000526020600020905b81548152906001019060200180831161089657829003601f168201915b5050505050905090565b6000818152600260205260408120546001600160a01b031661093b5760405162461bcd60e51b815260206004820152602c60248201527f4552433732313a20617070726f76656420717565727920666f72206e6f6e657860448201526b34b9ba32b73a103a37b5b2b760a11b60648201526084015b60405180910390fd5b506000908152600460205260409020546001600160a01b031690565b600d8054610964906127b0565b80601f0160208091040260200160405190810160405280929190818152602001828054610990906127b0565b80156109dd5780601f106109b2576101008083540402835291602001916109dd565b820191906000526020600020905b8154815290600101906020018083116109c057829003601f168201915b505050505081565b60006109f082610c7f565b9050806001600160a01b0316836001600160a01b03161415610a5e5760405162461bcd60e51b815260206004820152602160248201527f4552433732313a20617070726f76616c20746f2063757272656e74206f776e656044820152603960f91b6064820152608401610932565b336001600160a01b0382161480610a7a5750610a7a81336118e3565b610aec5760405162461bcd60e51b815260206004820152603860248201527f4552433732313a20617070726f76652063616c6c6572206973206e6f74206f7760448201527f6e6572206e6f7220617070726f76656420666f7220616c6c00000000000000006064820152608401610932565b610af68383611a88565b505050565b6000610b0660175490565b905090565b610b153382611af6565b610b315760405162461bcd60e51b8152600401610932906127eb565b610af6838383611bcc565b6006546001600160a01b03163314610b665760405162461bcd60e51b81526004016109329061283c565b600f805462ff0000198116620100009182900460ff1615909102179055565b6006546001600160a01b03163314610baf5760405162461bcd60e51b81526004016109329061283c565b6000610bc36006546001600160a01b031690565b6001600160a01b03164760405160006040518083038185875af1925050503d8060008114610c0d576040519150601f19603f3d011682016040523d82523d6000602084013e610c12565b606091505b5050905080610c2057600080fd5b50565b610af683838360405180602001604052806000815250611267565b6006546001600160a01b03163314610c685760405162461bcd60e51b81526004016109329061283c565b8051610c7b90600c906020840190612374565b5050565b6000818152600260205260408120546001600160a01b0316806108255760405162461bcd60e51b815260206004820152602960248201527f4552433732313a206f776e657220717565727920666f72206e6f6e657869737460448201526832b73a103a37b5b2b760b91b6064820152608401610932565b600c8054610964906127b0565b60006001600160a01b038216610d6e5760405162461bcd60e51b815260206004820152602a60248201527f4552433732313a2062616c616e636520717565727920666f7220746865207a65604482015269726f206164647265737360b01b6064820152608401610932565b506001600160a01b031660009081526003602052604090205490565b6006546001600160a01b03163314610db45760405162461bcd60e51b81526004016109329061283c565b610dbe6000611d68565b565b6006546001600160a01b03163314610dea5760405162461bcd60e51b81526004016109329061283c565b600855565b8181610e67828280806020026020016040519081016040528093929190818152602001838360200280828437600092019190915250506008546040516bffffffffffffffffffffffff193360601b16602082015290925060340190505b60405160208183030381529060405280519060200120611dba565b1515600114610e885760405162461bcd60e51b815260040161093290612871565b333214610ea75760405162461bcd60e51b815260040161093290612871565b336001600160a01b03871614610ee45760405162461bcd60e51b81526020600482015260026024820152614e4160f01b6044820152606401610932565b600f5462010000900460ff16610f2d5760405162461bcd60e51b815260206004820152600e60248201526d283932b9b0b6329034b99027a32360911b6044820152606401610932565b600f5460ff1615610f505760405162461bcd60e51b815260040161093290612894565b601054851115610f725760405162461bcd60e51b8152600401610932906128c0565b60105433600090815260116020526040902054610f90908790612903565b1115610fae5760405162461bcd60e51b8152600401610932906128c0565b6000610fb960175490565b600b54909150610fc98783612903565b1115610fe75760405162461bcd60e51b81526004016109329061291b565b3486601654610ff69190612948565b111561103d5760405162461bcd60e51b8152602060048201526016602482015275139bdd08195b9bdd59da08195d1a195c9cc81cd95b9d60521b6044820152606401610932565b336000908152601160205260408120805488929061105c908490612903565b90915550600090505b8681101561108757611075611dd0565b8061107f81612967565b915050611065565b5050505050505050565b60606001805461083a906127b0565b610c7b338383611e55565b6006546001600160a01b031633146110d55760405162461bcd60e51b81526004016109329061283c565b600f805461ff001916610100179055565b3332146111055760405162461bcd60e51b815260040161093290612871565b600f546301000000900460ff166111525760405162461bcd60e51b8152602060048201526011602482015270283ab13634b1a9b0b6329034b99027a32360791b6044820152606401610932565b600f5460ff16156111755760405162461bcd60e51b815260040161093290612894565b600081116111b35760405162461bcd60e51b815260206004820152600b60248201526a1e995c9bc8185b5bdd5b9d60aa1b6044820152606401610932565b60006111be60175490565b600b549091506111ce8383612903565b11156111ec5760405162461bcd60e51b81526004016109329061291b565b34826016546111fb9190612948565b11156112425760405162461bcd60e51b8152602060048201526016602482015275139bdd08195b9bdd59da08195d1a195c9cc81cd95b9d60521b6044820152606401610932565b60005b82811015610af657611255611dd0565b8061125f81612967565b915050611245565b6112713383611af6565b61128d5760405162461bcd60e51b8152600401610932906127eb565b61129984848484611f24565b50505050565b6006546001600160a01b031633146112c95760405162461bcd60e51b81526004016109329061283c565b6012548111156112eb5760405162461bcd60e51b8152600401610932906128c0565b60125433600090815260136020526040902054611309908390612903565b11156113275760405162461bcd60e51b8152600401610932906128c0565b600081116113655760405162461bcd60e51b815260206004820152600b60248201526a1e995c9bc8185b5bdd5b9d60aa1b6044820152606401610932565b600061137060175490565b600b549091506113808383612903565b111561139e5760405162461bcd60e51b81526004016109329061291b565b33600090815260136020526040812080548492906113bd908490612903565b90915550600090505b82811015610af6576113d6611dd0565b806113e081612967565b9150506113c6565b8181611449828280806020026020016040519081016040528093929190818152602001838360200280828437600092019190915250506009546040516bffffffffffffffffffffffff193360601b1660208201529092506034019050610e4c565b151560011461146a5760405162461bcd60e51b815260040161093290612871565b3332146114895760405162461bcd60e51b815260040161093290612871565b336001600160a01b038716146114c65760405162461bcd60e51b81526020600482015260026024820152614e4160f01b6044820152606401610932565b600f54640100000000900460ff166115115760405162461bcd60e51b815260206004820152600e60248201526d283932b9b0b6329034b99027a32360911b6044820152606401610932565b600f5460ff16156115345760405162461bcd60e51b815260040161093290612894565b6014548511156115565760405162461bcd60e51b8152600401610932906128c0565b60145433600090815260156020526040902054611574908790612903565b11156115925760405162461bcd60e51b8152600401610932906128c0565b600061159d60175490565b600b549091506115ad8783612903565b11156115cb5760405162461bcd60e51b81526004016109329061291b565b33600090815260156020526040812080548892906115ea908490612903565b90915550600090505b8681101561108757611603611dd0565b8061160d81612967565b9150506115f3565b6006546001600160a01b0316331461163f5760405162461bcd60e51b81526004016109329061283c565b600f805460ff19811660ff90911615179055565b600e8054610964906127b0565b6006546001600160a01b0316331461168a5760405162461bcd60e51b81526004016109329061283c565b600f805464ff000000001981166401000000009182900460ff1615909102179055565b6000818152600260205260409020546060906001600160a01b031661172c5760405162461bcd60e51b815260206004820152602f60248201527f4552433732314d657461646174613a2055524920717565727920666f72206e6f60448201526e3732bc34b9ba32b73a103a37b5b2b760891b6064820152608401610932565b600f54610100900460ff166117cd57600d8054611748906127b0565b80601f0160208091040260200160405190810160405280929190818152602001828054611774906127b0565b80156117c15780601f10611796576101008083540402835291602001916117c1565b820191906000526020600020905b8154815290600101906020018083116117a457829003601f168201915b50505050509050919050565b60006117d7611f57565b905060008151116117f75760405180602001604052806000815250611825565b8061180184611f66565b600e60405160200161181593929190612982565b6040516020818303038152906040525b9392505050565b6006546001600160a01b031633146118565760405162461bcd60e51b81526004016109329061283c565b8051610c7b90600e906020840190612374565b6006546001600160a01b031633146118935760405162461bcd60e51b81526004016109329061283c565b600955565b6006546001600160a01b031633146118c25760405162461bcd60e51b81526004016109329061283c565b600f805463ff00000019811663010000009182900460ff1615909102179055565b600a5460405163c455279160e01b81526001600160a01b03848116600483015260009281169190841690829063c45527919060240160206040518083038186803b15801561193057600080fd5b505afa158015611944573d6000803e3d6000fd5b505050506040513d601f19601f820116820180604052508101906119689190612a46565b6001600160a01b03161415611981576001915050610825565b6001600160a01b0380851660009081526005602090815260408083209387168352929052205460ff165b949350505050565b6006546001600160a01b031633146119dd5760405162461bcd60e51b81526004016109329061283c565b8051610c7b90600d906020840190612374565b6006546001600160a01b03163314611a1a5760405162461bcd60e51b81526004016109329061283c565b6001600160a01b038116611a7f5760405162461bcd60e51b815260206004820152602660248201527f4f776e61626c653a206e6577206f776e657220697320746865207a65726f206160448201526564647265737360d01b6064820152608401610932565b610c2081611d68565b600081815260046020526040902080546001600160a01b0319166001600160a01b0384169081179091558190611abd82610c7f565b6001600160a01b03167f8c5be1e5ebec7d5bd14f71427d1e84f3dd0314c0f7b2291e5b200ac8c7c3b92560405160405180910390a45050565b6000818152600260205260408120546001600160a01b0316611b6f5760405162461bcd60e51b815260206004820152602c60248201527f4552433732313a206f70657261746f7220717565727920666f72206e6f6e657860448201526b34b9ba32b73a103a37b5b2b760a11b6064820152608401610932565b6000611b7a83610c7f565b9050806001600160a01b0316846001600160a01b03161480611ba15750611ba181856118e3565b806119ab5750836001600160a01b0316611bba846108bd565b6001600160a01b031614949350505050565b826001600160a01b0316611bdf82610c7f565b6001600160a01b031614611c435760405162461bcd60e51b815260206004820152602560248201527f4552433732313a207472616e736665722066726f6d20696e636f72726563742060448201526437bbb732b960d91b6064820152608401610932565b6001600160a01b038216611ca55760405162461bcd60e51b8152602060048201526024808201527f4552433732313a207472616e7366657220746f20746865207a65726f206164646044820152637265737360e01b6064820152608401610932565b611cb0600082611a88565b6001600160a01b0383166000908152600360205260408120805460019290611cd9908490612a63565b90915550506001600160a01b0382166000908152600360205260408120805460019290611d07908490612903565b909155505060008181526002602052604080822080546001600160a01b0319166001600160a01b0386811691821790925591518493918716917fddf252ad1be2c89b69c2b068fc378daa952ba7f163c4a11628f55a4df523b3ef91a4505050565b600680546001600160a01b038381166001600160a01b0319831681179093556040519116919082907f8be0079c531659141344cd1fd0a4f28419497f9722a3daafe3b4186f6b6457e090600090a35050565b600082611dc78584612064565b14949350505050565b60026007541415611e235760405162461bcd60e51b815260206004820152601f60248201527f5265656e7472616e637947756172643a207265656e7472616e742063616c6c006044820152606401610932565b6002600755611e36601780546001019055565b6000611e4160175490565b9050611e4d33826120d8565b506001600755565b816001600160a01b0316836001600160a01b03161415611eb75760405162461bcd60e51b815260206004820152601960248201527f4552433732313a20617070726f766520746f2063616c6c6572000000000000006044820152606401610932565b6001600160a01b03838116600081815260056020908152604080832094871680845294825291829020805460ff191686151590811790915591519182527f17307eab39ab6107e8899845ad3d59bd9653f200f220920489ca2b5937696c31910160405180910390a3505050565b611f2f848484611bcc565b611f3b848484846120f2565b6112995760405162461bcd60e51b815260040161093290612a7a565b6060600c805461083a906127b0565b606081611f8a5750506040805180820190915260018152600360fc1b602082015290565b8160005b8115611fb45780611f9e81612967565b9150611fad9050600a83612ae2565b9150611f8e565b60008167ffffffffffffffff811115611fcf57611fcf612546565b6040519080825280601f01601f191660200182016040528015611ff9576020820181803683370190505b5090505b84156119ab5761200e600183612a63565b915061201b600a86612af6565b612026906030612903565b60f81b81838151811061203b5761203b612b0a565b60200101906001600160f81b031916908160001a90535061205d600a86612ae2565b9450611ffd565b600081815b84518110156120d057600085828151811061208657612086612b0a565b602002602001015190508083116120ac57600083815260208290526040902092506120bd565b600081815260208490526040902092505b50806120c881612967565b915050612069565b509392505050565b610c7b8282604051806020016040528060008152506121ff565b60006001600160a01b0384163b156121f457604051630a85bd0160e11b81526001600160a01b0385169063150b7a0290612136903390899088908890600401612b20565b602060405180830381600087803b15801561215057600080fd5b505af1925050508015612180575060408051601f3d908101601f1916820190925261217d91810190612b5d565b60015b6121da573d8080156121ae576040519150601f19603f3d011682016040523d82523d6000602084013e6121b3565b606091505b5080516121d25760405162461bcd60e51b815260040161093290612a7a565b805181602001fd5b6001600160e01b031916630a85bd0160e11b1490506119ab565b506001949350505050565b6122098383612232565b61221660008484846120f2565b610af65760405162461bcd60e51b815260040161093290612a7a565b6001600160a01b0382166122885760405162461bcd60e51b815260206004820181905260248201527f4552433732313a206d696e7420746f20746865207a65726f20616464726573736044820152606401610932565b6000818152600260205260409020546001600160a01b0316156122ed5760405162461bcd60e51b815260206004820152601c60248201527f4552433732313a20746f6b656e20616c7265616479206d696e746564000000006044820152606401610932565b6001600160a01b0382166000908152600360205260408120805460019290612316908490612903565b909155505060008181526002602052604080822080546001600160a01b0319166001600160a01b03861690811790915590518392907fddf252ad1be2c89b69c2b068fc378daa952ba7f163c4a11628f55a4df523b3ef908290a45050565b828054612380906127b0565b90600052602060002090601f0160209004810192826123a257600085556123e8565b82601f106123bb57805160ff19168380011785556123e8565b828001600101855582156123e8579182015b828111156123e85782518255916020019190600101906123cd565b506123f49291506123f8565b5090565b5b808211156123f457600081556001016123f9565b6001600160e01b031981168114610c2057600080fd5b60006020828403121561243557600080fd5b81356118258161240d565b60005b8381101561245b578181015183820152602001612443565b838111156112995750506000910152565b60008151808452612484816020860160208601612440565b601f01601f19169290920160200192915050565b602081526000611825602083018461246c565b6000602082840312156124bd57600080fd5b5035919050565b6001600160a01b0381168114610c2057600080fd5b600080604083850312156124ec57600080fd5b82356124f7816124c4565b946020939093013593505050565b60008060006060848603121561251a57600080fd5b8335612525816124c4565b92506020840135612535816124c4565b929592945050506040919091013590565b634e487b7160e01b600052604160045260246000fd5b600067ffffffffffffffff8084111561257757612577612546565b604051601f8501601f19908116603f0116810190828211818310171561259f5761259f612546565b816040528093508581528686860111156125b857600080fd5b858560208301376000602087830101525050509392505050565b6000602082840312156125e457600080fd5b813567ffffffffffffffff8111156125fb57600080fd5b8201601f8101841361260c57600080fd5b6119ab8482356020840161255c565b60006020828403121561262d57600080fd5b8135611825816124c4565b6000806000806060858703121561264e57600080fd5b8435612659816124c4565b935060208501359250604085013567ffffffffffffffff8082111561267d57600080fd5b818701915087601f83011261269157600080fd5b8135818111156126a057600080fd5b8860208260051b85010111156126b557600080fd5b95989497505060200194505050565b600080604083850312156126d757600080fd5b82356126e2816124c4565b9150602083013580151581146126f757600080fd5b809150509250929050565b6000806000806080858703121561271857600080fd5b8435612723816124c4565b93506020850135612733816124c4565b925060408501359150606085013567ffffffffffffffff81111561275657600080fd5b8501601f8101871361276757600080fd5b6127768782356020840161255c565b91505092959194509250565b6000806040838503121561279557600080fd5b82356127a0816124c4565b915060208301356126f7816124c4565b600181811c908216806127c457607f821691505b602082108114156127e557634e487b7160e01b600052602260045260246000fd5b50919050565b60208082526031908201527f4552433732313a207472616e736665722063616c6c6572206973206e6f74206f6040820152701ddb995c881b9bdc88185c1c1c9bdd9959607a1b606082015260800190565b6020808252818101527f4f776e61626c653a2063616c6c6572206973206e6f7420746865206f776e6572604082015260600190565b60208082526009908201526827209037b934b3b4b760b91b604082015260600190565b60208082526012908201527110dbdb9d1c9858dd081a5cc81c185d5cd95960721b604082015260600190565b602080825260139082015272135a5b9d081b1a5b5a5d08195e18d959591959606a1b604082015260600190565b634e487b7160e01b600052601160045260246000fd5b60008219821115612916576129166128ed565b500190565b60208082526013908201527213585e081cdd5c1c1b1e48195e18d959591959606a1b604082015260600190565b6000816000190483118215151615612962576129626128ed565b500290565b600060001982141561297b5761297b6128ed565b5060010190565b6000845160206129958285838a01612440565b8551918401916129a88184848a01612440565b8554920191600090600181811c90808316806129c557607f831692505b8583108114156129e357634e487b7160e01b85526022600452602485fd5b8080156129f75760018114612a0857612a35565b60ff19851688528388019550612a35565b60008b81526020902060005b85811015612a2d5781548a820152908401908801612a14565b505083880195505b50939b9a5050505050505050505050565b600060208284031215612a5857600080fd5b8151611825816124c4565b600082821015612a7557612a756128ed565b500390565b60208082526032908201527f4552433732313a207472616e7366657220746f206e6f6e20455243373231526560408201527131b2b4bb32b91034b6b83632b6b2b73a32b960711b606082015260800190565b634e487b7160e01b600052601260045260246000fd5b600082612af157612af1612acc565b500490565b600082612b0557612b05612acc565b500690565b634e487b7160e01b600052603260045260246000fd5b6001600160a01b0385811682528416602082015260408101839052608060608201819052600090612b539083018461246c565b9695505050505050565b600060208284031215612b6f57600080fd5b81516118258161240d56fea26469706673582212209e6d03cc6964d805bdb5c78ffa716f438852aae6ead4eaf5c330be252b0ff2f064736f6c63430008090033697066733a2f2f516d51536657774844323773596a714a777274656436647977383753635a4d52666671546b35575a59756a4c644a2f697066733a2f2f516d595575774c6f69526238776f58774a434373723167766272384532314b757852746d56426d6e4831745a7a372f68696464656e2e6a736f6e",
  "linkReferences": {},
  "deployedLinkReferences": {}
}